{
  "contractName": "ToDo",
  "abi": [
    {
      "anonymous": false,
      "inputs": [
        {
          "indexed": false,
          "internalType": "uint256",
          "name": "id",
          "type": "uint256"
        },
        {
          "indexed": false,
          "internalType": "uint256",
          "name": "date",
          "type": "uint256"
        },
        {
          "indexed": false,
          "internalType": "string",
          "name": "content",
          "type": "string"
        },
        {
          "indexed": false,
          "internalType": "string",
          "name": "author",
          "type": "string"
        },
        {
          "indexed": false,
          "internalType": "bool",
          "name": "done",
          "type": "bool"
        }
      ],
      "name": "TaskCreated",
      "type": "event"
    },
    {
      "constant": true,
      "inputs": [
        {
          "internalType": "uint256",
          "name": "",
          "type": "uint256"
        }
      ],
      "name": "tasks",
      "outputs": [
        {
          "internalType": "uint256",
          "name": "id",
          "type": "uint256"
        },
        {
          "internalType": "uint256",
          "name": "date",
          "type": "uint256"
        },
        {
          "internalType": "string",
          "name": "content",
          "type": "string"
        },
        {
          "internalType": "string",
          "name": "author",
          "type": "string"
        },
        {
          "internalType": "bool",
          "name": "done",
          "type": "bool"
        }
      ],
      "payable": false,
      "stateMutability": "view",
      "type": "function"
    },
    {
      "constant": false,
      "inputs": [
        {
          "internalType": "string",
          "name": "_content",
          "type": "string"
        },
        {
          "internalType": "string",
          "name": "_author",
          "type": "string"
        }
      ],
      "name": "createTask",
      "outputs": [],
      "payable": false,
      "stateMutability": "nonpayable",
      "type": "function"
    },
    {
      "constant": true,
      "inputs": [
        {
          "internalType": "uint256",
          "name": "_id",
          "type": "uint256"
        }
      ],
      "name": "getTask",
      "outputs": [
        {
          "internalType": "uint256",
          "name": "",
          "type": "uint256"
        },
        {
          "internalType": "uint256",
          "name": "",
          "type": "uint256"
        },
        {
          "internalType": "string",
          "name": "",
          "type": "string"
        },
        {
          "internalType": "string",
          "name": "",
          "type": "string"
        },
        {
          "internalType": "bool",
          "name": "",
          "type": "bool"
        }
      ],
      "payable": false,
      "stateMutability": "view",
      "type": "function"
    },
    {
      "constant": true,
      "inputs": [],
      "name": "getTaskIds",
      "outputs": [
        {
          "internalType": "uint256[]",
          "name": "",
          "type": "uint256[]"
        }
      ],
      "payable": false,
      "stateMutability": "view",
      "type": "function"
    }
  ],
  "bytecode": "0x6080604052600160025534801561001557600080fd5b50610af8806100256000396000f3fe608060405234801561001057600080fd5b506004361061004c5760003560e01c80631d65e77e14610051578063292a45851461017d5780638d977672146102cf578063bcd14805146103fb575b600080fd5b61007d6004803603602081101561006757600080fd5b810190808035906020019092919050505061045a565b60405180868152602001858152602001806020018060200184151515158152602001838103835286818151815260200191508051906020019080838360005b838110156100d75780820151818401526020810190506100bc565b50505050905090810190601f1680156101045780820380516001836020036101000a031916815260200191505b50838103825285818151815260200191508051906020019080838360005b8381101561013d578082015181840152602081019050610122565b50505050905090810190601f16801561016a5780820380516001836020036101000a031916815260200191505b5097505050505050505060405180910390f35b6102cd6004803603604081101561019357600080fd5b81019080803590602001906401000000008111156101b057600080fd5b8201836020820111156101c257600080fd5b803590602001918460018302840111640100000000831117156101e457600080fd5b91908080601f016020809104026020016040519081016040528093929190818152602001838380828437600081840152601f19601f8201169050808301925050505050505091929192908035906020019064010000000081111561024757600080fd5b82018360208201111561025957600080fd5b8035906020019184600183028401116401000000008311171561027b57600080fd5b91908080601f016020809104026020016040519081016040528093929190818152602001838380828437600081840152601f19601f820116905080830192505050505050509192919290505050610636565b005b6102fb600480360360208110156102e557600080fd5b8101908080359060200190929190505050610853565b60405180868152602001858152602001806020018060200184151515158152602001838103835286818151815260200191508051906020019080838360005b8381101561035557808201518184015260208101905061033a565b50505050905090810190601f1680156103825780820380516001836020036101000a031916815260200191505b50838103825285818151815260200191508051906020019080838360005b838110156103bb5780820151818401526020810190506103a0565b50505050905090810190601f1680156103e85780820380516001836020036101000a031916815260200191505b5097505050505050505060405180910390f35b6104036109c6565b6040518080602001828103825283818151815260200191508051906020019060200280838360005b8381101561044657808201518184015260208101905061042b565b505050509050019250505060405180910390f35b600080606080600085600080600083815260200190815260200160002060000154141561048657600080fd5b86600080898152602001908152602001600020600101546000808a81526020019081526020016000206002016000808b81526020019081526020016000206003016000808c815260200190815260200160002060040160009054906101000a900460ff16828054600181600116156101000203166002900480601f01602080910402602001604051908101604052809291908181526020018280546001816001161561010002031660029004801561057f5780601f106105545761010080835404028352916020019161057f565b820191906000526020600020905b81548152906001019060200180831161056257829003601f168201915b50505050509250818054600181600116156101000203166002900480601f01602080910402602001604051908101604052809291908181526020018280546001816001161561010002031660029004801561061b5780601f106105f05761010080835404028352916020019161061b565b820191906000526020600020905b8154815290600101906020018083116105fe57829003601f168201915b50505050509150955095509550955095505091939590929450565b6002600081548092919060010191905055506040518060a001604052806002548152602001428152602001838152602001828152602001600015158152506000806002548152602001908152602001600020600082015181600001556020820151816001015560408201518160020190805190602001906106b8929190610a1e565b5060608201518160030190805190602001906106d5929190610a1e565b5060808201518160040160006101000a81548160ff021916908315150217905550905050600160025490806001815401808255809150509060018203906000526020600020016000909192909190915055507fb322bdd3250d405f7845d27fa1f0753f8f7e18e40886bc254b89005c3e9c0324600254428484600060405180868152602001858152602001806020018060200184151515158152602001838103835286818151815260200191508051906020019080838360005b838110156107aa57808201518184015260208101905061078f565b50505050905090810190601f1680156107d75780820380516001836020036101000a031916815260200191505b50838103825285818151815260200191508051906020019080838360005b838110156108105780820151818401526020810190506107f5565b50505050905090810190601f16801561083d5780820380516001836020036101000a031916815260200191505b5097505050505050505060405180910390a15050565b6000602052806000526040600020600091509050806000015490806001015490806002018054600181600116156101000203166002900480601f01602080910402602001604051908101604052809291908181526020018280546001816001161561010002031660029004801561090b5780601f106108e05761010080835404028352916020019161090b565b820191906000526020600020905b8154815290600101906020018083116108ee57829003601f168201915b505050505090806003018054600181600116156101000203166002900480601f0160208091040260200160405190810160405280929190818152602001828054600181600116156101000203166002900480156109a95780601f1061097e576101008083540402835291602001916109a9565b820191906000526020600020905b81548152906001019060200180831161098c57829003601f168201915b5050505050908060040160009054906101000a900460ff16905085565b60606001805480602002602001604051908101604052809291908181526020018280548015610a1457602002820191906000526020600020905b815481526020019060010190808311610a00575b5050505050905090565b828054600181600116156101000203166002900490600052602060002090601f016020900481019282601f10610a5f57805160ff1916838001178555610a8d565b82800160010185558215610a8d579182015b82811115610a8c578251825591602001919060010190610a71565b5b509050610a9a9190610a9e565b5090565b610ac091905b80821115610abc576000816000905550600101610aa4565b5090565b9056fea265627a7a72315820110e05296025a3f8cbe8fd4f2b37e5af6dc800b9dc13cc3919f75d9dbc84639264736f6c63430005100032",
  "source": "pragma solidity ^0.5.0;\r\n\r\ncontract ToDo {\r\n    \r\n    struct Task {\r\n        uint id;\r\n        uint date;\r\n        string content;\r\n        string author;\r\n        bool done;\r\n    }\r\n    \r\n    event TaskCreated(uint id, uint date, string content, string author, bool done);\r\n    \r\n    mapping(uint => Task) public tasks;\r\n    \r\n    uint[] taskIds;\r\n    uint lastTaskId = 1;\r\n    \r\n    modifier tasksExisted(uint _id) {\r\n        if(tasks[_id].id == 0)\r\n        revert();\r\n        _;\r\n    }\r\n    \r\n    function createTask(string memory _content, string memory _author) public {\r\n        lastTaskId++;\r\n        tasks[lastTaskId] = Task(lastTaskId, now, _content, _author, false);\r\n        taskIds.push(lastTaskId);\r\n        emit TaskCreated(lastTaskId, now, _content, _author, false);\r\n    }\r\n    \r\n    function getTask(uint _id) public view tasksExisted(_id) returns(uint, uint, string memory, string memory, bool) {\r\n        return (_id, tasks[_id].date, tasks[_id].content, tasks[_id].author, tasks[_id].done);\r\n    }\r\n    \r\n    function getTaskIds() public view returns(uint[] memory) {\r\n        return taskIds;\r\n    }\r\n    \r\n}",
  "sourcePath": "D:\\Sammy\\Projects\\Todo Dapp\\contracts\\Todo.sol",
  "compiler": {
    "name": "solc",
    "version": "0.5.16+commit.9c3226ce.Emscripten.clang"
  },
  "schemaVersion": "3.0.23",
  "updatedAt": "2020-06-22T15:34:47.134Z",
  "devdoc": {
    "methods": {}
  },
  "userdoc": {
    "methods": {}
  }
}